{
  "contractName": "Buffalos",
  "abi": [
    {
      "inputs": [
        {
          "internalType": "string",
          "name": "name",
          "type": "string"
        },
        {
          "internalType": "string",
          "name": "symbol",
          "type": "string"
        },
        {
          "internalType": "string",
          "name": "URI",
          "type": "string"
        },
        {
          "internalType": "uint256",
          "name": "initialSupply",
          "type": "uint256"
        },
        {
          "internalType": "uint256",
          "name": "startDate",
          "type": "uint256"
        },
        {
          "internalType": "address",
          "name": "_artist",
          "type": "address"
        },
        {
          "internalType": "address",
          "name": "_txFeeToken",
          "type": "address"
        },
        {
          "internalType": "uint256",
          "name": "_txFeeAmount",
          "type": "uint256"
        }
      ],
      "stateMutability": "nonpayable",
      "type": "constructor"
    },
    {
      "anonymous": false,
      "inputs": [
        {
          "indexed": true,
          "internalType": "address",
          "name": "owner",
          "type": "address"
        },
        {
          "indexed": true,
          "internalType": "address",
          "name": "approved",
          "type": "address"
        },
        {
          "indexed": true,
          "internalType": "uint256",
          "name": "tokenId",
          "type": "uint256"
        }
      ],
      "name": "Approval",
      "type": "event"
    },
    {
      "anonymous": false,
      "inputs": [
        {
          "indexed": true,
          "internalType": "address",
          "name": "owner",
          "type": "address"
        },
        {
          "indexed": true,
          "internalType": "address",
          "name": "operator",
          "type": "address"
        },
        {
          "indexed": false,
          "internalType": "bool",
          "name": "approved",
          "type": "bool"
        }
      ],
      "name": "ApprovalForAll",
      "type": "event"
    },
    {
      "anonymous": false,
      "inputs": [
        {
          "indexed": false,
          "internalType": "address",
          "name": "buyer",
          "type": "address"
        },
        {
          "indexed": false,
          "internalType": "uint256",
          "name": "amount",
          "type": "uint256"
        }
      ],
      "name": "BuffaloBought",
      "type": "event"
    },
    {
      "anonymous": false,
      "inputs": [
        {
          "indexed": true,
          "internalType": "address",
          "name": "previousOwner",
          "type": "address"
        },
        {
          "indexed": true,
          "internalType": "address",
          "name": "newOwner",
          "type": "address"
        }
      ],
      "name": "OwnershipTransferred",
      "type": "event"
    },
    {
      "anonymous": false,
      "inputs": [
        {
          "indexed": true,
          "internalType": "address",
          "name": "from",
          "type": "address"
        },
        {
          "indexed": true,
          "internalType": "address",
          "name": "to",
          "type": "address"
        },
        {
          "indexed": true,
          "internalType": "uint256",
          "name": "tokenId",
          "type": "uint256"
        }
      ],
      "name": "Transfer",
      "type": "event"
    },
    {
      "inputs": [],
      "name": "BASE_RATE",
      "outputs": [
        {
          "internalType": "uint256",
          "name": "",
          "type": "uint256"
        }
      ],
      "stateMutability": "view",
      "type": "function",
      "constant": true
    },
    {
      "inputs": [],
      "name": "MAX_SUPPLY",
      "outputs": [
        {
          "internalType": "uint256",
          "name": "",
          "type": "uint256"
        }
      ],
      "stateMutability": "view",
      "type": "function",
      "constant": true
    },
    {
      "inputs": [
        {
          "internalType": "address",
          "name": "to",
          "type": "address"
        },
        {
          "internalType": "uint256",
          "name": "tokenId",
          "type": "uint256"
        }
      ],
      "name": "approve",
      "outputs": [],
      "stateMutability": "nonpayable",
      "type": "function"
    },
    {
      "inputs": [],
      "name": "artist",
      "outputs": [
        {
          "internalType": "address",
          "name": "",
          "type": "address"
        }
      ],
      "stateMutability": "view",
      "type": "function",
      "constant": true
    },
    {
      "inputs": [
        {
          "internalType": "address",
          "name": "owner",
          "type": "address"
        }
      ],
      "name": "balanceOf",
      "outputs": [
        {
          "internalType": "uint256",
          "name": "",
          "type": "uint256"
        }
      ],
      "stateMutability": "view",
      "type": "function",
      "constant": true
    },
    {
      "inputs": [],
      "name": "baseURI",
      "outputs": [
        {
          "internalType": "string",
          "name": "",
          "type": "string"
        }
      ],
      "stateMutability": "view",
      "type": "function",
      "constant": true
    },
    {
      "inputs": [],
      "name": "blockStart",
      "outputs": [
        {
          "internalType": "uint256",
          "name": "",
          "type": "uint256"
        }
      ],
      "stateMutability": "view",
      "type": "function",
      "constant": true
    },
    {
      "inputs": [],
      "name": "cost",
      "outputs": [
        {
          "internalType": "uint256",
          "name": "",
          "type": "uint256"
        }
      ],
      "stateMutability": "view",
      "type": "function",
      "constant": true
    },
    {
      "inputs": [
        {
          "internalType": "address",
          "name": "",
          "type": "address"
        }
      ],
      "name": "excludedList",
      "outputs": [
        {
          "internalType": "bool",
          "name": "",
          "type": "bool"
        }
      ],
      "stateMutability": "view",
      "type": "function",
      "constant": true
    },
    {
      "inputs": [
        {
          "internalType": "uint256",
          "name": "tokenId",
          "type": "uint256"
        }
      ],
      "name": "getApproved",
      "outputs": [
        {
          "internalType": "address",
          "name": "",
          "type": "address"
        }
      ],
      "stateMutability": "view",
      "type": "function",
      "constant": true
    },
    {
      "inputs": [
        {
          "internalType": "address",
          "name": "owner",
          "type": "address"
        },
        {
          "internalType": "address",
          "name": "operator",
          "type": "address"
        }
      ],
      "name": "isApprovedForAll",
      "outputs": [
        {
          "internalType": "bool",
          "name": "",
          "type": "bool"
        }
      ],
      "stateMutability": "view",
      "type": "function",
      "constant": true
    },
    {
      "inputs": [],
      "name": "maxMintAmount",
      "outputs": [
        {
          "internalType": "uint256",
          "name": "",
          "type": "uint256"
        }
      ],
      "stateMutability": "view",
      "type": "function",
      "constant": true
    },
    {
      "inputs": [],
      "name": "metaDataExt",
      "outputs": [
        {
          "internalType": "string",
          "name": "",
          "type": "string"
        }
      ],
      "stateMutability": "view",
      "type": "function",
      "constant": true
    },
    {
      "inputs": [],
      "name": "mintable",
      "outputs": [
        {
          "internalType": "bool",
          "name": "",
          "type": "bool"
        }
      ],
      "stateMutability": "view",
      "type": "function",
      "constant": true
    },
    {
      "inputs": [],
      "name": "name",
      "outputs": [
        {
          "internalType": "string",
          "name": "",
          "type": "string"
        }
      ],
      "stateMutability": "view",
      "type": "function",
      "constant": true
    },
    {
      "inputs": [],
      "name": "owner",
      "outputs": [
        {
          "internalType": "address",
          "name": "",
          "type": "address"
        }
      ],
      "stateMutability": "view",
      "type": "function",
      "constant": true
    },
    {
      "inputs": [
        {
          "internalType": "uint256",
          "name": "tokenId",
          "type": "uint256"
        }
      ],
      "name": "ownerOf",
      "outputs": [
        {
          "internalType": "address",
          "name": "",
          "type": "address"
        }
      ],
      "stateMutability": "view",
      "type": "function",
      "constant": true
    },
    {
      "inputs": [],
      "name": "renounceOwnership",
      "outputs": [],
      "stateMutability": "nonpayable",
      "type": "function"
    },
    {
      "inputs": [
        {
          "internalType": "address",
          "name": "from",
          "type": "address"
        },
        {
          "internalType": "address",
          "name": "to",
          "type": "address"
        },
        {
          "internalType": "uint256",
          "name": "tokenId",
          "type": "uint256"
        }
      ],
      "name": "safeTransferFrom",
      "outputs": [],
      "stateMutability": "nonpayable",
      "type": "function"
    },
    {
      "inputs": [
        {
          "internalType": "address",
          "name": "from",
          "type": "address"
        },
        {
          "internalType": "address",
          "name": "to",
          "type": "address"
        },
        {
          "internalType": "uint256",
          "name": "tokenId",
          "type": "uint256"
        },
        {
          "internalType": "bytes",
          "name": "_data",
          "type": "bytes"
        }
      ],
      "name": "safeTransferFrom",
      "outputs": [],
      "stateMutability": "nonpayable",
      "type": "function"
    },
    {
      "inputs": [
        {
          "internalType": "address",
          "name": "operator",
          "type": "address"
        },
        {
          "internalType": "bool",
          "name": "approved",
          "type": "bool"
        }
      ],
      "name": "setApprovalForAll",
      "outputs": [],
      "stateMutability": "nonpayable",
      "type": "function"
    },
    {
      "inputs": [
        {
          "internalType": "bytes4",
          "name": "interfaceId",
          "type": "bytes4"
        }
      ],
      "name": "supportsInterface",
      "outputs": [
        {
          "internalType": "bool",
          "name": "",
          "type": "bool"
        }
      ],
      "stateMutability": "view",
      "type": "function",
      "constant": true
    },
    {
      "inputs": [],
      "name": "symbol",
      "outputs": [
        {
          "internalType": "string",
          "name": "",
          "type": "string"
        }
      ],
      "stateMutability": "view",
      "type": "function",
      "constant": true
    },
    {
      "inputs": [
        {
          "internalType": "uint256",
          "name": "index",
          "type": "uint256"
        }
      ],
      "name": "tokenByIndex",
      "outputs": [
        {
          "internalType": "uint256",
          "name": "",
          "type": "uint256"
        }
      ],
      "stateMutability": "view",
      "type": "function",
      "constant": true
    },
    {
      "inputs": [
        {
          "internalType": "address",
          "name": "owner",
          "type": "address"
        },
        {
          "internalType": "uint256",
          "name": "index",
          "type": "uint256"
        }
      ],
      "name": "tokenOfOwnerByIndex",
      "outputs": [
        {
          "internalType": "uint256",
          "name": "",
          "type": "uint256"
        }
      ],
      "stateMutability": "view",
      "type": "function",
      "constant": true
    },
    {
      "inputs": [],
      "name": "totalSupply",
      "outputs": [
        {
          "internalType": "uint256",
          "name": "",
          "type": "uint256"
        }
      ],
      "stateMutability": "view",
      "type": "function",
      "constant": true
    },
    {
      "inputs": [
        {
          "internalType": "address",
          "name": "from",
          "type": "address"
        },
        {
          "internalType": "address",
          "name": "to",
          "type": "address"
        },
        {
          "internalType": "uint256",
          "name": "tokenId",
          "type": "uint256"
        }
      ],
      "name": "transferFrom",
      "outputs": [],
      "stateMutability": "nonpayable",
      "type": "function"
    },
    {
      "inputs": [
        {
          "internalType": "address",
          "name": "newOwner",
          "type": "address"
        }
      ],
      "name": "transferOwnership",
      "outputs": [],
      "stateMutability": "nonpayable",
      "type": "function"
    },
    {
      "inputs": [],
      "name": "txFeeToken",
      "outputs": [
        {
          "internalType": "address",
          "name": "",
          "type": "address"
        }
      ],
      "stateMutability": "view",
      "type": "function",
      "constant": true
    },
    {
      "inputs": [],
      "name": "uri",
      "outputs": [
        {
          "internalType": "string",
          "name": "",
          "type": "string"
        }
      ],
      "stateMutability": "view",
      "type": "function",
      "constant": true
    },
    {
      "inputs": [
        {
          "internalType": "address",
          "name": "",
          "type": "address"
        }
      ],
      "name": "whitelisted",
      "outputs": [
        {
          "internalType": "bool",
          "name": "",
          "type": "bool"
        }
      ],
      "stateMutability": "view",
      "type": "function",
      "constant": true
    },
    {
      "inputs": [
        {
          "internalType": "uint256",
          "name": "amount",
          "type": "uint256"
        }
      ],
      "name": "getNFTPrice",
      "outputs": [
        {
          "internalType": "uint256",
          "name": "",
          "type": "uint256"
        }
      ],
      "stateMutability": "view",
      "type": "function",
      "constant": true
    },
    {
      "inputs": [
        {
          "internalType": "address",
          "name": "excluded",
          "type": "address"
        },
        {
          "internalType": "bool",
          "name": "status",
          "type": "bool"
        }
      ],
      "name": "setExcluded",
      "outputs": [],
      "stateMutability": "nonpayable",
      "type": "function"
    },
    {
      "inputs": [
        {
          "internalType": "uint256",
          "name": "startDate",
          "type": "uint256"
        }
      ],
      "name": "setBlockStart",
      "outputs": [],
      "stateMutability": "nonpayable",
      "type": "function"
    },
    {
      "inputs": [
        {
          "internalType": "uint256",
          "name": "startDate",
          "type": "uint256"
        }
      ],
      "name": "updateBlockStart",
      "outputs": [],
      "stateMutability": "nonpayable",
      "type": "function"
    },
    {
      "inputs": [],
      "name": "getBlockStart",
      "outputs": [
        {
          "internalType": "uint256",
          "name": "",
          "type": "uint256"
        }
      ],
      "stateMutability": "view",
      "type": "function",
      "constant": true
    },
    {
      "inputs": [],
      "name": "getMaxSupply",
      "outputs": [
        {
          "internalType": "uint256",
          "name": "",
          "type": "uint256"
        }
      ],
      "stateMutability": "view",
      "type": "function",
      "constant": true
    },
    {
      "inputs": [
        {
          "internalType": "uint256",
          "name": "numberofBuffalos",
          "type": "uint256"
        }
      ],
      "name": "mintBuffalo",
      "outputs": [],
      "stateMutability": "payable",
      "type": "function",
      "payable": true
    },
    {
      "inputs": [
        {
          "internalType": "bool",
          "name": "mintFlag",
          "type": "bool"
        }
      ],
      "name": "canMint",
      "outputs": [],
      "stateMutability": "nonpayable",
      "type": "function"
    },
    {
      "inputs": [
        {
          "internalType": "uint256",
          "name": "amount",
          "type": "uint256"
        }
      ],
      "name": "withdraw",
      "outputs": [],
      "stateMutability": "nonpayable",
      "type": "function"
    },
    {
      "inputs": [
        {
          "internalType": "string",
          "name": "URI",
          "type": "string"
        }
      ],
      "name": "changeBaseURI",
      "outputs": [],
      "stateMutability": "nonpayable",
      "type": "function"
    },
    {
      "inputs": [
        {
          "internalType": "uint256",
          "name": "supply",
          "type": "uint256"
        }
      ],
      "name": "changeMaxSupply",
      "outputs": [],
      "stateMutability": "nonpayable",
      "type": "function"
    },
    {
      "inputs": [
        {
          "internalType": "uint256",
          "name": "price",
          "type": "uint256"
        }
      ],
      "name": "updateMintPrice",
      "outputs": [],
      "stateMutability": "nonpayable",
      "type": "function"
    },
    {
      "inputs": [
        {
          "internalType": "address",
          "name": "_owner",
          "type": "address"
        }
      ],
      "name": "walletOfOwner",
      "outputs": [
        {
          "internalType": "uint256[]",
          "name": "",
          "type": "uint256[]"
        }
      ],
      "stateMutability": "view",
      "type": "function",
      "constant": true
    },
    {
      "inputs": [
        {
          "internalType": "uint256",
          "name": "tokenId",
          "type": "uint256"
        }
      ],
      "name": "tokenURI",
      "outputs": [
        {
          "internalType": "string",
          "name": "",
          "type": "string"
        }
      ],
      "stateMutability": "view",
      "type": "function",
      "constant": true
    },
    {
      "inputs": [
        {
          "internalType": "uint256",
          "name": "_newCost",
          "type": "uint256"
        }
      ],
      "name": "setCost",
      "outputs": [],
      "stateMutability": "nonpayable",
      "type": "function"
    },
    {
      "inputs": [
        {
          "internalType": "uint256",
          "name": "_newmaxMintAmount",
          "type": "uint256"
        }
      ],
      "name": "setmaxMintAmount",
      "outputs": [],
      "stateMutability": "nonpayable",
      "type": "function"
    },
    {
      "inputs": [
        {
          "internalType": "string",
          "name": "_newBaseURI",
          "type": "string"
        }
      ],
      "name": "setBaseURI",
      "outputs": [],
      "stateMutability": "nonpayable",
      "type": "function"
    },
    {
      "inputs": [
        {
          "internalType": "address",
          "name": "_user",
          "type": "address"
        }
      ],
      "name": "whitelistUser",
      "outputs": [],
      "stateMutability": "nonpayable",
      "type": "function"
    },
    {
      "inputs": [
        {
          "internalType": "address",
          "name": "_user",
          "type": "address"
        }
      ],
      "name": "removeWhitelistUser",
      "outputs": [],
      "stateMutability": "nonpayable",
      "type": "function"
    }
  ],
  "bytecode": "0x6080604052670de0b6b3a7640000600f556040518060400160405280600581526020017f2e6a736f6e000000000000000000000000000000000000000000000000000000815250601490805190602001906200005d92919062000383565b506001601560006101000a81548160ff0219169083151502179055503480156200008657600080fd5b5060405162005975380380620059758339818101604052810190620000ac9190620004d3565b87878160009080519060200190620000c692919062000383565b508060019080519060200190620000df92919062000383565b50505062000102620000f6620001d660201b60201c565b620001de60201b60201c565b6200011386620002a460201b60201c565b62000124846200034f60201b60201c565b82601060006101000a81548173ffffffffffffffffffffffffffffffffffffffff021916908373ffffffffffffffffffffffffffffffffffffffff16021790555081601160006101000a81548173ffffffffffffffffffffffffffffffffffffffff021916908373ffffffffffffffffffffffffffffffffffffffff16021790555066038d7ea4c6800081620001bb9190620006bd565b600f8190555084600c81905550505050505050505062000889565b600033905090565b6000600a60009054906101000a900473ffffffffffffffffffffffffffffffffffffffff16905081600a60006101000a81548173ffffffffffffffffffffffffffffffffffffffff021916908373ffffffffffffffffffffffffffffffffffffffff1602179055508173ffffffffffffffffffffffffffffffffffffffff168173ffffffffffffffffffffffffffffffffffffffff167f8be0079c531659141344cd1fd0a4f28419497f9722a3daafe3b4186f6b6457e060405160405180910390a35050565b620002b4620001d660201b60201c565b73ffffffffffffffffffffffffffffffffffffffff16620002da6200035960201b60201c565b73ffffffffffffffffffffffffffffffffffffffff161462000333576040517f08c379a00000000000000000000000000000000000000000000000000000000081526004016200032a9062000623565b60405180910390fd5b80601290805190602001906200034b92919062000383565b5050565b80600b8190555050565b6000600a60009054906101000a900473ffffffffffffffffffffffffffffffffffffffff16905090565b828054620003919062000792565b90600052602060002090601f016020900481019282620003b5576000855562000401565b82601f10620003d057805160ff191683800117855562000401565b8280016001018555821562000401579182015b8281111562000400578251825591602001919060010190620003e3565b5b50905062000410919062000414565b5090565b5b808211156200042f57600081600090555060010162000415565b5090565b60006200044a620004448462000679565b62000645565b9050828152602081018484840111156200046357600080fd5b620004708482856200075c565b509392505050565b600081519050620004898162000855565b92915050565b600082601f830112620004a157600080fd5b8151620004b384826020860162000433565b91505092915050565b600081519050620004cd816200086f565b92915050565b600080600080600080600080610100898b031215620004f157600080fd5b600089015167ffffffffffffffff8111156200050c57600080fd5b6200051a8b828c016200048f565b985050602089015167ffffffffffffffff8111156200053857600080fd5b620005468b828c016200048f565b975050604089015167ffffffffffffffff8111156200056457600080fd5b620005728b828c016200048f565b9650506060620005858b828c01620004bc565b9550506080620005988b828c01620004bc565b94505060a0620005ab8b828c0162000478565b93505060c0620005be8b828c0162000478565b92505060e0620005d18b828c01620004bc565b9150509295985092959890939650565b6000620005f0602083620006ac565b91507f4f776e61626c653a2063616c6c6572206973206e6f7420746865206f776e65726000830152602082019050919050565b600060208201905081810360008301526200063e81620005e1565b9050919050565b6000604051905081810181811067ffffffffffffffff821117156200066f576200066e62000826565b5b8060405250919050565b600067ffffffffffffffff82111562000697576200069662000826565b5b601f19601f8301169050602081019050919050565b600082825260208201905092915050565b6000620006ca8262000752565b9150620006d78362000752565b9250817fffffffffffffffffffffffffffffffffffffffffffffffffffffffffffffffff0483118215151615620007135762000712620007c8565b5b828202905092915050565b60006200072b8262000732565b9050919050565b600073ffffffffffffffffffffffffffffffffffffffff82169050919050565b6000819050919050565b60005b838110156200077c5780820151818401526020810190506200075f565b838111156200078c576000848401525b50505050565b60006002820490506001821680620007ab57607f821691505b60208210811415620007c257620007c1620007f7565b5b50919050565b7f4e487b7100000000000000000000000000000000000000000000000000000000600052601160045260246000fd5b7f4e487b7100000000000000000000000000000000000000000000000000000000600052602260045260246000fd5b7f4e487b7100000000000000000000000000000000000000000000000000000000600052604160045260246000fd5b62000860816200071e565b81146200086c57600080fd5b50565b6200087a8162000752565b81146200088657600080fd5b50565b6150dc80620008996000396000f3fe6080604052600436106102c85760003560e01c80634c0f38c2116101755780637f00c7a6116100dc578063b88d4fde11610095578063e2db1a301161006f578063e2db1a3014610b08578063e985e9c514610b31578063eac989f814610b6e578063f2fde38b14610b99576102c8565b8063b88d4fde14610a65578063c87b56dd14610a8e578063d936547e14610acb576102c8565b80637f00c7a6146109645780638da5cb5b1461098d57806392976179146109b857806395d89b41146109f5578063a22cb46514610a20578063b2ca781414610a49576102c8565b80636b870e441161012e5780636b870e44146108645780636c0360eb1461088f57806370a08231146108ba578063715018a6146108f757806377c567a71461090e5780637b2feaaa14610939576102c8565b80634c0f38c2146107305780634e80f0f11461075b5780634f6ccce71461078457806355f804b3146107c15780635600d2fa146107ea5780636352211e14610827576102c8565b80632f745c591161023457806342842e0e116101ed57806344a0d68a116101c757806344a0d68a1461068a57806346e8597a146106b35780634a4c560d146106dc5780634bf365df14610705576102c8565b806342842e0e146105f9578063438b63001461062257806343bc16121461065f576102c8565b80632f745c59146104eb57806330cc7ae01461052857806332cb6b0c1461055157806339a0c6f91461057c578063404c7cdd146105a557806341910f90146105ce576102c8565b806318160ddd1161028657806318160ddd146103ef578063239c70ae1461041a57806323b872dd1461044557806325ae270b1461046e5780632836be24146104995780632e1a7d4d146104c2576102c8565b8062728e46146102cd57806301ffc9a7146102f657806306fdde0314610333578063081812fc1461035e578063095ea7b31461039b57806313faede6146103c4575b600080fd5b3480156102d957600080fd5b506102f460048036038101906102ef9190613c40565b610bc2565b005b34801561030257600080fd5b5061031d60048036038101906103189190613bad565b610c5a565b60405161032a919061486c565b60405180910390f35b34801561033f57600080fd5b50610348610cd4565b6040516103559190614887565b60405180910390f35b34801561036a57600080fd5b5061038560048036038101906103809190613c40565b610d66565b6040516103929190614783565b60405180910390f35b3480156103a757600080fd5b506103c260048036038101906103bd9190613b1f565b610deb565b005b3480156103d057600080fd5b506103d9610f03565b6040516103e69190614bc9565b60405180910390f35b3480156103fb57600080fd5b50610404610f09565b6040516104119190614bc9565b60405180910390f35b34801561042657600080fd5b5061042f610f16565b60405161043c9190614bc9565b60405180910390f35b34801561045157600080fd5b5061046c60048036038101906104679190613a19565b610f1c565b005b34801561047a57600080fd5b50610483610f7c565b6040516104909190614bc9565b60405180910390f35b3480156104a557600080fd5b506104c060048036038101906104bb9190613ae3565b610f86565b005b3480156104ce57600080fd5b506104e960048036038101906104e49190613c40565b611071565b005b3480156104f757600080fd5b50610512600480360381019061050d9190613b1f565b611137565b60405161051f9190614bc9565b60405180910390f35b34801561053457600080fd5b5061054f600480360381019061054a91906139b4565b6111dc565b005b34801561055d57600080fd5b506105666112b3565b6040516105739190614bc9565b60405180910390f35b34801561058857600080fd5b506105a3600480360381019061059e9190613bff565b6112b9565b005b3480156105b157600080fd5b506105cc60048036038101906105c79190613c40565b611341565b005b3480156105da57600080fd5b506105e36113c7565b6040516105f09190614bc9565b60405180910390f35b34801561060557600080fd5b50610620600480360381019061061b9190613a19565b6113cd565b005b34801561062e57600080fd5b50610649600480360381019061064491906139b4565b6113ed565b604051610656919061484a565b60405180910390f35b34801561066b57600080fd5b506106746114e7565b6040516106819190614783565b60405180910390f35b34801561069657600080fd5b506106b160048036038101906106ac9190613c40565b61150d565b005b3480156106bf57600080fd5b506106da60048036038101906106d59190613c40565b611593565b005b3480156106e857600080fd5b5061070360048036038101906106fe91906139b4565b61165e565b005b34801561071157600080fd5b5061071a611735565b604051610727919061486c565b60405180910390f35b34801561073c57600080fd5b50610745611748565b6040516107529190614bc9565b60405180910390f35b34801561076757600080fd5b50610782600480360381019061077d9190613b5b565b611752565b005b34801561079057600080fd5b506107ab60048036038101906107a69190613c40565b6117eb565b6040516107b89190614bc9565b60405180910390f35b3480156107cd57600080fd5b506107e860048036038101906107e39190613bff565b611882565b005b3480156107f657600080fd5b50610811600480360381019061080c91906139b4565b611918565b60405161081e919061486c565b60405180910390f35b34801561083357600080fd5b5061084e60048036038101906108499190613c40565b611938565b60405161085b9190614783565b60405180910390f35b34801561087057600080fd5b506108796119ea565b6040516108869190614887565b60405180910390f35b34801561089b57600080fd5b506108a4611a78565b6040516108b19190614887565b60405180910390f35b3480156108c657600080fd5b506108e160048036038101906108dc91906139b4565b611b06565b6040516108ee9190614bc9565b60405180910390f35b34801561090357600080fd5b5061090c611bbe565b005b34801561091a57600080fd5b50610923611c46565b6040516109309190614783565b60405180910390f35b34801561094557600080fd5b5061094e611c6c565b60405161095b9190614bc9565b60405180910390f35b34801561097057600080fd5b5061098b60048036038101906109869190613c40565b611c72565b005b34801561099957600080fd5b506109a2611cf8565b6040516109af9190614783565b60405180910390f35b3480156109c457600080fd5b506109df60048036038101906109da9190613c40565b611d22565b6040516109ec9190614bc9565b60405180910390f35b348015610a0157600080fd5b50610a0a611d40565b604051610a179190614887565b60405180910390f35b348015610a2c57600080fd5b50610a476004803603810190610a429190613ae3565b611dd2565b005b610a636004803603810190610a5e9190613c40565b611f53565b005b348015610a7157600080fd5b50610a8c6004803603810190610a879190613a68565b61229c565b005b348015610a9a57600080fd5b50610ab56004803603810190610ab09190613c40565b6122fe565b604051610ac29190614887565b60405180910390f35b348015610ad757600080fd5b50610af26004803603810190610aed91906139b4565b6123a8565b604051610aff919061486c565b60405180910390f35b348015610b1457600080fd5b50610b2f6004803603810190610b2a9190613c40565b6123c8565b005b348015610b3d57600080fd5b50610b586004803603810190610b5391906139dd565b6123d2565b604051610b65919061486c565b60405180910390f35b348015610b7a57600080fd5b50610b83612466565b604051610b909190614887565b60405180910390f35b348015610ba557600080fd5b50610bc06004803603810190610bbb91906139b4565b6124f4565b005b610bca6125ec565b73ffffffffffffffffffffffffffffffffffffffff16610be8611cf8565b73ffffffffffffffffffffffffffffffffffffffff1614610c3e576040517f08c379a0000000000000000000000000000000000000000000000000000000008152600401610c3590614aa9565b60405180910390fd5b66038d7ea4c6800081610c519190614d8d565b600f8190555050565b60007f780e9d63000000000000000000000000000000000000000000000000000000007bffffffffffffffffffffffffffffffffffffffffffffffffffffffff1916827bffffffffffffffffffffffffffffffffffffffffffffffffffffffff19161480610ccd5750610ccc826125f4565b5b9050919050565b606060008054610ce390614ed1565b80601f0160208091040260200160405190810160405280929190818152602001828054610d0f90614ed1565b8015610d5c5780601f10610d3157610100808354040283529160200191610d5c565b820191906000526020600020905b815481529060010190602001808311610d3f57829003601f168201915b5050505050905090565b6000610d71826126d6565b610db0576040517f08c379a0000000000000000000000000000000000000000000000000000000008152600401610da790614a89565b60405180910390fd5b6004600083815260200190815260200160002060009054906101000a900473ffffffffffffffffffffffffffffffffffffffff169050919050565b6000610df682611938565b90508073ffffffffffffffffffffffffffffffffffffffff168373ffffffffffffffffffffffffffffffffffffffff161415610e67576040517f08c379a0000000000000000000000000000000000000000000000000000000008152600401610e5e90614b09565b60405180910390fd5b8073ffffffffffffffffffffffffffffffffffffffff16610e866125ec565b73ffffffffffffffffffffffffffffffffffffffff161480610eb55750610eb481610eaf6125ec565b6123d2565b5b610ef4576040517f08c379a0000000000000000000000000000000000000000000000000000000008152600401610eeb90614a09565b60405180910390fd5b610efe8383612742565b505050565b600d5481565b6000600880549050905090565b600e5481565b610f2d610f276125ec565b826127fb565b610f6c576040517f08c379a0000000000000000000000000000000000000000000000000000000008152600401610f6390614b69565b60405180910390fd5b610f778383836128d9565b505050565b6000600b54905090565b601060009054906101000a900473ffffffffffffffffffffffffffffffffffffffff1673ffffffffffffffffffffffffffffffffffffffff163373ffffffffffffffffffffffffffffffffffffffff1614611016576040517f08c379a000000000000000000000000000000000000000000000000000000000815260040161100d90614969565b60405180910390fd5b80601760008473ffffffffffffffffffffffffffffffffffffffff1673ffffffffffffffffffffffffffffffffffffffff16815260200190815260200160002060006101000a81548160ff0219169083151502179055505050565b6110796125ec565b73ffffffffffffffffffffffffffffffffffffffff16611097611cf8565b73ffffffffffffffffffffffffffffffffffffffff16146110ed576040517f08c379a00000000000000000000000000000000000000000000000000000000081526004016110e490614aa9565b60405180910390fd5b3373ffffffffffffffffffffffffffffffffffffffff166108fc829081150290604051600060405180830381858888f19350505050158015611133573d6000803e3d6000fd5b5050565b600061114283611b06565b8210611183576040517f08c379a000000000000000000000000000000000000000000000000000000000815260040161117a906148c9565b60405180910390fd5b600660008473ffffffffffffffffffffffffffffffffffffffff1673ffffffffffffffffffffffffffffffffffffffff168152602001908152602001600020600083815260200190815260200160002054905092915050565b6111e46125ec565b73ffffffffffffffffffffffffffffffffffffffff16611202611cf8565b73ffffffffffffffffffffffffffffffffffffffff1614611258576040517f08c379a000000000000000000000000000000000000000000000000000000000815260040161124f90614aa9565b60405180910390fd5b6000601660008373ffffffffffffffffffffffffffffffffffffffff1673ffffffffffffffffffffffffffffffffffffffff16815260200190815260200160002060006101000a81548160ff02191690831515021790555050565b600c5481565b6112c16125ec565b73ffffffffffffffffffffffffffffffffffffffff166112df611cf8565b73ffffffffffffffffffffffffffffffffffffffff1614611335576040517f08c379a000000000000000000000000000000000000000000000000000000000815260040161132c90614aa9565b60405180910390fd5b61133e81611882565b50565b6113496125ec565b73ffffffffffffffffffffffffffffffffffffffff16611367611cf8565b73ffffffffffffffffffffffffffffffffffffffff16146113bd576040517f08c379a00000000000000000000000000000000000000000000000000000000081526004016113b490614aa9565b60405180910390fd5b80600c8190555050565b600f5481565b6113e88383836040518060200160405280600081525061229c565b505050565b606060006113fa83611b06565b905060008167ffffffffffffffff81111561143e577f4e487b7100000000000000000000000000000000000000000000000000000000600052604160045260246000fd5b60405190808252806020026020018201604052801561146c5781602001602082028036833780820191505090505b50905060005b828110156114dc576114848582611137565b8282815181106114bd577f4e487b7100000000000000000000000000000000000000000000000000000000600052603260045260246000fd5b60200260200101818152505080806114d490614f03565b915050611472565b508092505050919050565b601060009054906101000a900473ffffffffffffffffffffffffffffffffffffffff1681565b6115156125ec565b73ffffffffffffffffffffffffffffffffffffffff16611533611cf8565b73ffffffffffffffffffffffffffffffffffffffff1614611589576040517f08c379a000000000000000000000000000000000000000000000000000000000815260040161158090614aa9565b60405180910390fd5b80600d8190555050565b61159b6125ec565b73ffffffffffffffffffffffffffffffffffffffff166115b9611cf8565b73ffffffffffffffffffffffffffffffffffffffff161461160f576040517f08c379a000000000000000000000000000000000000000000000000000000000815260040161160690614aa9565b60405180910390fd5b600b54421115611654576040517f08c379a000000000000000000000000000000000000000000000000000000000815260040161164b90614949565b60405180910390fd5b80600b8190555050565b6116666125ec565b73ffffffffffffffffffffffffffffffffffffffff16611684611cf8565b73ffffffffffffffffffffffffffffffffffffffff16146116da576040517f08c379a00000000000000000000000000000000000000000000000000000000081526004016116d190614aa9565b60405180910390fd5b6001601660008373ffffffffffffffffffffffffffffffffffffffff1673ffffffffffffffffffffffffffffffffffffffff16815260200190815260200160002060006101000a81548160ff02191690831515021790555050565b601560009054906101000a900460ff1681565b6000600c54905090565b61175a6125ec565b73ffffffffffffffffffffffffffffffffffffffff16611778611cf8565b73ffffffffffffffffffffffffffffffffffffffff16146117ce576040517f08c379a00000000000000000000000000000000000000000000000000000000081526004016117c590614aa9565b60405180910390fd5b80601560006101000a81548160ff02191690831515021790555050565b60006117f5610f09565b8210611836576040517f08c379a000000000000000000000000000000000000000000000000000000000815260040161182d90614b89565b60405180910390fd5b60088281548110611870577f4e487b7100000000000000000000000000000000000000000000000000000000600052603260045260246000fd5b90600052602060002001549050919050565b61188a6125ec565b73ffffffffffffffffffffffffffffffffffffffff166118a8611cf8565b73ffffffffffffffffffffffffffffffffffffffff16146118fe576040517f08c379a00000000000000000000000000000000000000000000000000000000081526004016118f590614aa9565b60405180910390fd5b80601290805190602001906119149291906137ae565b5050565b60176020528060005260406000206000915054906101000a900460ff1681565b6000806002600084815260200190815260200160002060009054906101000a900473ffffffffffffffffffffffffffffffffffffffff169050600073ffffffffffffffffffffffffffffffffffffffff168173ffffffffffffffffffffffffffffffffffffffff1614156119e1576040517f08c379a00000000000000000000000000000000000000000000000000000000081526004016119d890614a49565b60405180910390fd5b80915050919050565b601480546119f790614ed1565b80601f0160208091040260200160405190810160405280929190818152602001828054611a2390614ed1565b8015611a705780601f10611a4557610100808354040283529160200191611a70565b820191906000526020600020905b815481529060010190602001808311611a5357829003601f168201915b505050505081565b60128054611a8590614ed1565b80601f0160208091040260200160405190810160405280929190818152602001828054611ab190614ed1565b8015611afe5780601f10611ad357610100808354040283529160200191611afe565b820191906000526020600020905b815481529060010190602001808311611ae157829003601f168201915b505050505081565b60008073ffffffffffffffffffffffffffffffffffffffff168273ffffffffffffffffffffffffffffffffffffffff161415611b77576040517f08c379a0000000000000000000000000000000000000000000000000000000008152600401611b6e90614a29565b60405180910390fd5b600360008373ffffffffffffffffffffffffffffffffffffffff1673ffffffffffffffffffffffffffffffffffffffff168152602001908152602001600020549050919050565b611bc66125ec565b73ffffffffffffffffffffffffffffffffffffffff16611be4611cf8565b73ffffffffffffffffffffffffffffffffffffffff1614611c3a576040517f08c379a0000000000000000000000000000000000000000000000000000000008152600401611c3190614aa9565b60405180910390fd5b611c446000612b35565b565b601160009054906101000a900473ffffffffffffffffffffffffffffffffffffffff1681565b600b5481565b611c7a6125ec565b73ffffffffffffffffffffffffffffffffffffffff16611c98611cf8565b73ffffffffffffffffffffffffffffffffffffffff1614611cee576040517f08c379a0000000000000000000000000000000000000000000000000000000008152600401611ce590614aa9565b60405180910390fd5b80600e8190555050565b6000600a60009054906101000a900473ffffffffffffffffffffffffffffffffffffffff16905090565b6000611d39600f5483612bfb90919063ffffffff16565b9050919050565b606060018054611d4f90614ed1565b80601f0160208091040260200160405190810160405280929190818152602001828054611d7b90614ed1565b8015611dc85780601f10611d9d57610100808354040283529160200191611dc8565b820191906000526020600020905b815481529060010190602001808311611dab57829003601f168201915b5050505050905090565b611dda6125ec565b73ffffffffffffffffffffffffffffffffffffffff168273ffffffffffffffffffffffffffffffffffffffff161415611e48576040517f08c379a0000000000000000000000000000000000000000000000000000000008152600401611e3f906149a9565b60405180910390fd5b8060056000611e556125ec565b73ffffffffffffffffffffffffffffffffffffffff1673ffffffffffffffffffffffffffffffffffffffff16815260200190815260200160002060008473ffffffffffffffffffffffffffffffffffffffff1673ffffffffffffffffffffffffffffffffffffffff16815260200190815260200160002060006101000a81548160ff0219169083151502179055508173ffffffffffffffffffffffffffffffffffffffff16611f026125ec565b73ffffffffffffffffffffffffffffffffffffffff167f17307eab39ab6107e8899845ad3d59bd9653f200f220920489ca2b5937696c3183604051611f47919061486c565b60405180910390a35050565b600b54421015611f98576040517f08c379a0000000000000000000000000000000000000000000000000000000008152600401611f8f90614b49565b60405180910390fd5b600c54611fa3610f09565b10611fe3576040517f08c379a0000000000000000000000000000000000000000000000000000000008152600401611fda90614b29565b60405180910390fd5b60008111612026576040517f08c379a000000000000000000000000000000000000000000000000000000000815260040161201d906149e9565b60405180910390fd5b600c5461203a612034610f09565b83612c11565b111561207b576040517f08c379a0000000000000000000000000000000000000000000000000000000008152600401612072906148a9565b60405180910390fd5b6000601160009054906101000a900473ffffffffffffffffffffffffffffffffffffffff1690508073ffffffffffffffffffffffffffffffffffffffff166370a08231336040518263ffffffff1660e01b81526004016120db9190614783565b60206040518083038186803b1580156120f357600080fd5b505afa158015612107573d6000803e3d6000fd5b505050506040513d601f19601f8201168201806040525081019061212b9190613c69565b61213483611d22565b1115612175576040517f08c379a000000000000000000000000000000000000000000000000000000000815260040161216c90614ba9565b60405180910390fd5b8073ffffffffffffffffffffffffffffffffffffffff166323b872dd33601060009054906101000a900473ffffffffffffffffffffffffffffffffffffffff166121be86611d22565b6040518463ffffffff1660e01b81526004016121dc9392919061479e565b602060405180830381600087803b1580156121f657600080fd5b505af115801561220a573d6000803e3d6000fd5b505050506040513d601f19601f8201168201806040525081019061222e9190613b84565b5060005b8281101561225e5761224b33612246610f09565b612c27565b808061225690614f03565b915050612232565b507f152a3f66f8394a939d9860354eb635f358dd886f139a26e3accff04f6d6a13233383604051612290929190614821565b60405180910390a15050565b6122ad6122a76125ec565b836127fb565b6122ec576040517f08c379a00000000000000000000000000000000000000000000000000000000081526004016122e390614b69565b60405180910390fd5b6122f884848484612c45565b50505050565b6060612309826126d6565b612348576040517f08c379a000000000000000000000000000000000000000000000000000000000815260040161233f90614ae9565b60405180910390fd5b6000612352612ca1565b9050600081511161237257604051806020016040528060008152506123a0565b8061237c84612d33565b601460405160200161239093929190614752565b6040516020818303038152906040525b915050919050565b60166020528060005260406000206000915054906101000a900460ff1681565b80600b8190555050565b6000600560008473ffffffffffffffffffffffffffffffffffffffff1673ffffffffffffffffffffffffffffffffffffffff16815260200190815260200160002060008373ffffffffffffffffffffffffffffffffffffffff1673ffffffffffffffffffffffffffffffffffffffff16815260200190815260200160002060009054906101000a900460ff16905092915050565b6013805461247390614ed1565b80601f016020809104026020016040519081016040528092919081815260200182805461249f90614ed1565b80156124ec5780601f106124c1576101008083540402835291602001916124ec565b820191906000526020600020905b8154815290600101906020018083116124cf57829003601f168201915b505050505081565b6124fc6125ec565b73ffffffffffffffffffffffffffffffffffffffff1661251a611cf8565b73ffffffffffffffffffffffffffffffffffffffff1614612570576040517f08c379a000000000000000000000000000000000000000000000000000000000815260040161256790614aa9565b60405180910390fd5b600073ffffffffffffffffffffffffffffffffffffffff168173ffffffffffffffffffffffffffffffffffffffff1614156125e0576040517f08c379a00000000000000000000000000000000000000000000000000000000081526004016125d790614909565b60405180910390fd5b6125e981612b35565b50565b600033905090565b60007f80ac58cd000000000000000000000000000000000000000000000000000000007bffffffffffffffffffffffffffffffffffffffffffffffffffffffff1916827bffffffffffffffffffffffffffffffffffffffffffffffffffffffff191614806126bf57507f5b5e139f000000000000000000000000000000000000000000000000000000007bffffffffffffffffffffffffffffffffffffffffffffffffffffffff1916827bffffffffffffffffffffffffffffffffffffffffffffffffffffffff1916145b806126cf57506126ce82612ee0565b5b9050919050565b60008073ffffffffffffffffffffffffffffffffffffffff166002600084815260200190815260200160002060009054906101000a900473ffffffffffffffffffffffffffffffffffffffff1673ffffffffffffffffffffffffffffffffffffffff1614159050919050565b816004600083815260200190815260200160002060006101000a81548173ffffffffffffffffffffffffffffffffffffffff021916908373ffffffffffffffffffffffffffffffffffffffff160217905550808273ffffffffffffffffffffffffffffffffffffffff166127b583611938565b73ffffffffffffffffffffffffffffffffffffffff167f8c5be1e5ebec7d5bd14f71427d1e84f3dd0314c0f7b2291e5b200ac8c7c3b92560405160405180910390a45050565b6000612806826126d6565b612845576040517f08c379a000000000000000000000000000000000000000000000000000000000815260040161283c906149c9565b60405180910390fd5b600061285083611938565b90508073ffffffffffffffffffffffffffffffffffffffff168473ffffffffffffffffffffffffffffffffffffffff1614806128bf57508373ffffffffffffffffffffffffffffffffffffffff166128a784610d66565b73ffffffffffffffffffffffffffffffffffffffff16145b806128d057506128cf81856123d2565b5b91505092915050565b8273ffffffffffffffffffffffffffffffffffffffff166128f982611938565b73ffffffffffffffffffffffffffffffffffffffff161461294f576040517f08c379a000000000000000000000000000000000000000000000000000000000815260040161294690614ac9565b60405180910390fd5b600073ffffffffffffffffffffffffffffffffffffffff168273ffffffffffffffffffffffffffffffffffffffff1614156129bf576040517f08c379a00000000000000000000000000000000000000000000000000000000081526004016129b690614989565b60405180910390fd5b6129ca838383612f4a565b6129d5600082612742565b6001600360008573ffffffffffffffffffffffffffffffffffffffff1673ffffffffffffffffffffffffffffffffffffffff1681526020019081526020016000206000828254612a259190614de7565b925050819055506001600360008473ffffffffffffffffffffffffffffffffffffffff1673ffffffffffffffffffffffffffffffffffffffff1681526020019081526020016000206000828254612a7c9190614d06565b92505081905550816002600083815260200190815260200160002060006101000a81548173ffffffffffffffffffffffffffffffffffffffff021916908373ffffffffffffffffffffffffffffffffffffffff160217905550808273ffffffffffffffffffffffffffffffffffffffff168473ffffffffffffffffffffffffffffffffffffffff167fddf252ad1be2c89b69c2b068fc378daa952ba7f163c4a11628f55a4df523b3ef60405160405180910390a4505050565b6000600a60009054906101000a900473ffffffffffffffffffffffffffffffffffffffff16905081600a60006101000a81548173ffffffffffffffffffffffffffffffffffffffff021916908373ffffffffffffffffffffffffffffffffffffffff1602179055508173ffffffffffffffffffffffffffffffffffffffff168173ffffffffffffffffffffffffffffffffffffffff167f8be0079c531659141344cd1fd0a4f28419497f9722a3daafe3b4186f6b6457e060405160405180910390a35050565b60008183612c099190614d8d565b905092915050565b60008183612c1f9190614d06565b905092915050565b612c4182826040518060200160405280600081525061305e565b5050565b612c508484846128d9565b612c5c848484846130b9565b612c9b576040517f08c379a0000000000000000000000000000000000000000000000000000000008152600401612c92906148e9565b60405180910390fd5b50505050565b606060128054612cb090614ed1565b80601f0160208091040260200160405190810160405280929190818152602001828054612cdc90614ed1565b8015612d295780601f10612cfe57610100808354040283529160200191612d29565b820191906000526020600020905b815481529060010190602001808311612d0c57829003601f168201915b5050505050905090565b60606000821415612d7b576040518060400160405280600181526020017f30000000000000000000000000000000000000000000000000000000000000008152509050612edb565b600082905060005b60008214612dad578080612d9690614f03565b915050600a82612da69190614d5c565b9150612d83565b60008167ffffffffffffffff811115612def577f4e487b7100000000000000000000000000000000000000000000000000000000600052604160045260246000fd5b6040519080825280601f01601f191660200182016040528015612e215781602001600182028036833780820191505090505b5090505b60008514612ed457600182612e3a9190614de7565b9150600a85612e499190614f4c565b6030612e559190614d06565b60f81b818381518110612e91577f4e487b7100000000000000000000000000000000000000000000000000000000600052603260045260246000fd5b60200101907effffffffffffffffffffffffffffffffffffffffffffffffffffffffffffff1916908160001a905350600a85612ecd9190614d5c565b9450612e25565b8093505050505b919050565b60007f01ffc9a7000000000000000000000000000000000000000000000000000000007bffffffffffffffffffffffffffffffffffffffffffffffffffffffff1916827bffffffffffffffffffffffffffffffffffffffffffffffffffffffff1916149050919050565b612f55838383613250565b600073ffffffffffffffffffffffffffffffffffffffff168373ffffffffffffffffffffffffffffffffffffffff161415612f9857612f9381613255565b612fd7565b8173ffffffffffffffffffffffffffffffffffffffff168373ffffffffffffffffffffffffffffffffffffffff1614612fd657612fd5838261329e565b5b5b600073ffffffffffffffffffffffffffffffffffffffff168273ffffffffffffffffffffffffffffffffffffffff16141561301a576130158161340b565b613059565b8273ffffffffffffffffffffffffffffffffffffffff168273ffffffffffffffffffffffffffffffffffffffff161461305857613057828261354e565b5b5b505050565b61306883836135cd565b61307560008484846130b9565b6130b4576040517f08c379a00000000000000000000000000000000000000000000000000000000081526004016130ab906148e9565b60405180910390fd5b505050565b60006130da8473ffffffffffffffffffffffffffffffffffffffff1661379b565b15613243578373ffffffffffffffffffffffffffffffffffffffff1663150b7a026131036125ec565b8786866040518563ffffffff1660e01b815260040161312594939291906147d5565b602060405180830381600087803b15801561313f57600080fd5b505af192505050801561317057506040513d601f19601f8201168201806040525081019061316d9190613bd6565b60015b6131f3573d80600081146131a0576040519150601f19603f3d011682016040523d82523d6000602084013e6131a5565b606091505b506000815114156131eb576040517f08c379a00000000000000000000000000000000000000000000000000000000081526004016131e2906148e9565b60405180910390fd5b805181602001fd5b63150b7a0260e01b7bffffffffffffffffffffffffffffffffffffffffffffffffffffffff1916817bffffffffffffffffffffffffffffffffffffffffffffffffffffffff191614915050613248565b600190505b949350505050565b505050565b6008805490506009600083815260200190815260200160002081905550600881908060018154018082558091505060019003906000526020600020016000909190919091505550565b600060016132ab84611b06565b6132b59190614de7565b905060006007600084815260200190815260200160002054905081811461339a576000600660008673ffffffffffffffffffffffffffffffffffffffff1673ffffffffffffffffffffffffffffffffffffffff168152602001908152602001600020600084815260200190815260200160002054905080600660008773ffffffffffffffffffffffffffffffffffffffff1673ffffffffffffffffffffffffffffffffffffffff168152602001908152602001600020600084815260200190815260200160002081905550816007600083815260200190815260200160002081905550505b6007600084815260200190815260200160002060009055600660008573ffffffffffffffffffffffffffffffffffffffff1673ffffffffffffffffffffffffffffffffffffffff16815260200190815260200160002060008381526020019081526020016000206000905550505050565b6000600160088054905061341f9190614de7565b9050600060096000848152602001908152602001600020549050600060088381548110613475577f4e487b7100000000000000000000000000000000000000000000000000000000600052603260045260246000fd5b9060005260206000200154905080600883815481106134bd577f4e487b7100000000000000000000000000000000000000000000000000000000600052603260045260246000fd5b906000526020600020018190555081600960008381526020019081526020016000208190555060096000858152602001908152602001600020600090556008805480613532577f4e487b7100000000000000000000000000000000000000000000000000000000600052603160045260246000fd5b6001900381819060005260206000200160009055905550505050565b600061355983611b06565b905081600660008573ffffffffffffffffffffffffffffffffffffffff1673ffffffffffffffffffffffffffffffffffffffff168152602001908152602001600020600083815260200190815260200160002081905550806007600084815260200190815260200160002081905550505050565b600073ffffffffffffffffffffffffffffffffffffffff168273ffffffffffffffffffffffffffffffffffffffff16141561363d576040517f08c379a000000000000000000000000000000000000000000000000000000000815260040161363490614a69565b60405180910390fd5b613646816126d6565b15613686576040517f08c379a000000000000000000000000000000000000000000000000000000000815260040161367d90614929565b60405180910390fd5b61369260008383612f4a565b6001600360008473ffffffffffffffffffffffffffffffffffffffff1673ffffffffffffffffffffffffffffffffffffffff16815260200190815260200160002060008282546136e29190614d06565b92505081905550816002600083815260200190815260200160002060006101000a81548173ffffffffffffffffffffffffffffffffffffffff021916908373ffffffffffffffffffffffffffffffffffffffff160217905550808273ffffffffffffffffffffffffffffffffffffffff16600073ffffffffffffffffffffffffffffffffffffffff167fddf252ad1be2c89b69c2b068fc378daa952ba7f163c4a11628f55a4df523b3ef60405160405180910390a45050565b600080823b905060008111915050919050565b8280546137ba90614ed1565b90600052602060002090601f0160209004810192826137dc5760008555613823565b82601f106137f557805160ff1916838001178555613823565b82800160010185558215613823579182015b82811115613822578251825591602001919060010190613807565b5b5090506138309190613834565b5090565b5b8082111561384d576000816000905550600101613835565b5090565b600061386461385f84614c15565b614be4565b90508281526020810184848401111561387c57600080fd5b613887848285614e8f565b509392505050565b60006138a261389d84614c45565b614be4565b9050828152602081018484840111156138ba57600080fd5b6138c5848285614e8f565b509392505050565b6000813590506138dc8161504a565b92915050565b6000813590506138f181615061565b92915050565b60008151905061390681615061565b92915050565b60008135905061391b81615078565b92915050565b60008151905061393081615078565b92915050565b600082601f83011261394757600080fd5b8135613957848260208601613851565b91505092915050565b600082601f83011261397157600080fd5b813561398184826020860161388f565b91505092915050565b6000813590506139998161508f565b92915050565b6000815190506139ae8161508f565b92915050565b6000602082840312156139c657600080fd5b60006139d4848285016138cd565b91505092915050565b600080604083850312156139f057600080fd5b60006139fe858286016138cd565b9250506020613a0f858286016138cd565b9150509250929050565b600080600060608486031215613a2e57600080fd5b6000613a3c868287016138cd565b9350506020613a4d868287016138cd565b9250506040613a5e8682870161398a565b9150509250925092565b60008060008060808587031215613a7e57600080fd5b6000613a8c878288016138cd565b9450506020613a9d878288016138cd565b9350506040613aae8782880161398a565b925050606085013567ffffffffffffffff811115613acb57600080fd5b613ad787828801613936565b91505092959194509250565b60008060408385031215613af657600080fd5b6000613b04858286016138cd565b9250506020613b15858286016138e2565b9150509250929050565b60008060408385031215613b3257600080fd5b6000613b40858286016138cd565b9250506020613b518582860161398a565b9150509250929050565b600060208284031215613b6d57600080fd5b6000613b7b848285016138e2565b91505092915050565b600060208284031215613b9657600080fd5b6000613ba4848285016138f7565b91505092915050565b600060208284031215613bbf57600080fd5b6000613bcd8482850161390c565b91505092915050565b600060208284031215613be857600080fd5b6000613bf684828501613921565b91505092915050565b600060208284031215613c1157600080fd5b600082013567ffffffffffffffff811115613c2b57600080fd5b613c3784828501613960565b91505092915050565b600060208284031215613c5257600080fd5b6000613c608482850161398a565b91505092915050565b600060208284031215613c7b57600080fd5b6000613c898482850161399f565b91505092915050565b6000613c9e8383614734565b60208301905092915050565b613cb381614e1b565b82525050565b6000613cc482614c9a565b613cce8185614cc8565b9350613cd983614c75565b8060005b83811015613d0a578151613cf18882613c92565b9750613cfc83614cbb565b925050600181019050613cdd565b5085935050505092915050565b613d2081614e2d565b82525050565b6000613d3182614ca5565b613d3b8185614cd9565b9350613d4b818560208601614e9e565b613d5481615039565b840191505092915050565b6000613d6a82614cb0565b613d748185614cea565b9350613d84818560208601614e9e565b613d8d81615039565b840191505092915050565b6000613da382614cb0565b613dad8185614cfb565b9350613dbd818560208601614e9e565b80840191505092915050565b60008154613dd681614ed1565b613de08186614cfb565b94506001821660008114613dfb5760018114613e0c57613e3f565b60ff19831686528186019350613e3f565b613e1585614c85565b60005b83811015613e3757815481890152600182019150602081019050613e18565b838801955050505b50505092915050565b6000613e55604283614cea565b91507f45786365656473206d6178696d756d2042756666616c6f7320737570706c792e60008301527f20506c656173652074727920746f206d696e74206c6573732042756666616c6f60208301527f732e0000000000000000000000000000000000000000000000000000000000006040830152606082019050919050565b6000613ee1602b83614cea565b91507f455243373231456e756d657261626c653a206f776e657220696e646578206f7560008301527f74206f6620626f756e64730000000000000000000000000000000000000000006020830152604082019050919050565b6000613f47603283614cea565b91507f4552433732313a207472616e7366657220746f206e6f6e20455243373231526560008301527f63656976657220696d706c656d656e74657200000000000000000000000000006020830152604082019050919050565b6000613fad602683614cea565b91507f4f776e61626c653a206e6577206f776e657220697320746865207a65726f206160008301527f64647265737300000000000000000000000000000000000000000000000000006020830152604082019050919050565b6000614013601c83614cea565b91507f4552433732313a20746f6b656e20616c7265616479206d696e746564000000006000830152602082019050919050565b6000614053601983614cea565b91507f53616c652068617320616c726561647920737461727465642e000000000000006000830152602082019050919050565b6000614093600b83614cea565b91507f617274697374206f6e6c790000000000000000000000000000000000000000006000830152602082019050919050565b60006140d3602483614cea565b91507f4552433732313a207472616e7366657220746f20746865207a65726f2061646460008301527f72657373000000000000000000000000000000000000000000000000000000006020830152604082019050919050565b6000614139601983614cea565b91507f4552433732313a20617070726f766520746f2063616c6c6572000000000000006000830152602082019050919050565b6000614179602c83614cea565b91507f4552433732313a206f70657261746f7220717565727920666f72206e6f6e657860008301527f697374656e7420746f6b656e00000000000000000000000000000000000000006020830152604082019050919050565b60006141df601b83614cea565b91507f596f752063616e6e6f74206d696e7420302042756666616c6f732e00000000006000830152602082019050919050565b600061421f603883614cea565b91507f4552433732313a20617070726f76652063616c6c6572206973206e6f74206f7760008301527f6e6572206e6f7220617070726f76656420666f7220616c6c00000000000000006020830152604082019050919050565b6000614285602a83614cea565b91507f4552433732313a2062616c616e636520717565727920666f7220746865207a6560008301527f726f2061646472657373000000000000000000000000000000000000000000006020830152604082019050919050565b60006142eb602983614cea565b91507f4552433732313a206f776e657220717565727920666f72206e6f6e657869737460008301527f656e7420746f6b656e00000000000000000000000000000000000000000000006020830152604082019050919050565b6000614351602083614cea565b91507f4552433732313a206d696e7420746f20746865207a65726f20616464726573736000830152602082019050919050565b6000614391602c83614cea565b91507f4552433732313a20617070726f76656420717565727920666f72206e6f6e657860008301527f697374656e7420746f6b656e00000000000000000000000000000000000000006020830152604082019050919050565b60006143f7602083614cea565b91507f4f776e61626c653a2063616c6c6572206973206e6f7420746865206f776e65726000830152602082019050919050565b6000614437602983614cea565b91507f4552433732313a207472616e73666572206f6620746f6b656e2074686174206960008301527f73206e6f74206f776e00000000000000000000000000000000000000000000006020830152604082019050919050565b600061449d602f83614cea565b91507f4552433732314d657461646174613a2055524920717565727920666f72206e6f60008301527f6e6578697374656e7420746f6b656e00000000000000000000000000000000006020830152604082019050919050565b6000614503602183614cea565b91507f4552433732313a20617070726f76616c20746f2063757272656e74206f776e6560008301527f72000000000000000000000000000000000000000000000000000000000000006020830152604082019050919050565b6000614569601783614cea565b91507f53616c652068617320616c726561647920656e6465642e0000000000000000006000830152602082019050919050565b60006145a9603683614cea565b91507f53616c6520686173206e6f7420737461727465642079657420736f20796f752060008301527f63616e2774206765742061207072696365207965742e000000000000000000006020830152604082019050919050565b600061460f603183614cea565b91507f4552433732313a207472616e736665722063616c6c6572206973206e6f74206f60008301527f776e6572206e6f7220617070726f7665640000000000000000000000000000006020830152604082019050919050565b6000614675602c83614cea565b91507f455243373231456e756d657261626c653a20676c6f62616c20696e646578206f60008301527f7574206f6620626f756e647300000000000000000000000000000000000000006020830152604082019050919050565b60006146db602283614cea565b91507f416d6f756e74206f6620546f6b656e206973206e6f742073756666696369656e60008301527f742e0000000000000000000000000000000000000000000000000000000000006020830152604082019050919050565b61473d81614e85565b82525050565b61474c81614e85565b82525050565b600061475e8286613d98565b915061476a8285613d98565b91506147768284613dc9565b9150819050949350505050565b60006020820190506147986000830184613caa565b92915050565b60006060820190506147b36000830186613caa565b6147c06020830185613caa565b6147cd6040830184614743565b949350505050565b60006080820190506147ea6000830187613caa565b6147f76020830186613caa565b6148046040830185614743565b81810360608301526148168184613d26565b905095945050505050565b60006040820190506148366000830185613caa565b6148436020830184614743565b9392505050565b600060208201905081810360008301526148648184613cb9565b905092915050565b60006020820190506148816000830184613d17565b92915050565b600060208201905081810360008301526148a18184613d5f565b905092915050565b600060208201905081810360008301526148c281613e48565b9050919050565b600060208201905081810360008301526148e281613ed4565b9050919050565b6000602082019050818103600083015261490281613f3a565b9050919050565b6000602082019050818103600083015261492281613fa0565b9050919050565b6000602082019050818103600083015261494281614006565b9050919050565b6000602082019050818103600083015261496281614046565b9050919050565b6000602082019050818103600083015261498281614086565b9050919050565b600060208201905081810360008301526149a2816140c6565b9050919050565b600060208201905081810360008301526149c28161412c565b9050919050565b600060208201905081810360008301526149e28161416c565b9050919050565b60006020820190508181036000830152614a02816141d2565b9050919050565b60006020820190508181036000830152614a2281614212565b9050919050565b60006020820190508181036000830152614a4281614278565b9050919050565b60006020820190508181036000830152614a62816142de565b9050919050565b60006020820190508181036000830152614a8281614344565b9050919050565b60006020820190508181036000830152614aa281614384565b9050919050565b60006020820190508181036000830152614ac2816143ea565b9050919050565b60006020820190508181036000830152614ae28161442a565b9050919050565b60006020820190508181036000830152614b0281614490565b9050919050565b60006020820190508181036000830152614b22816144f6565b9050919050565b60006020820190508181036000830152614b428161455c565b9050919050565b60006020820190508181036000830152614b628161459c565b9050919050565b60006020820190508181036000830152614b8281614602565b9050919050565b60006020820190508181036000830152614ba281614668565b9050919050565b60006020820190508181036000830152614bc2816146ce565b9050919050565b6000602082019050614bde6000830184614743565b92915050565b6000604051905081810181811067ffffffffffffffff82111715614c0b57614c0a61500a565b5b8060405250919050565b600067ffffffffffffffff821115614c3057614c2f61500a565b5b601f19601f8301169050602081019050919050565b600067ffffffffffffffff821115614c6057614c5f61500a565b5b601f19601f8301169050602081019050919050565b6000819050602082019050919050565b60008190508160005260206000209050919050565b600081519050919050565b600081519050919050565b600081519050919050565b6000602082019050919050565b600082825260208201905092915050565b600082825260208201905092915050565b600082825260208201905092915050565b600081905092915050565b6000614d1182614e85565b9150614d1c83614e85565b9250827fffffffffffffffffffffffffffffffffffffffffffffffffffffffffffffffff03821115614d5157614d50614f7d565b5b828201905092915050565b6000614d6782614e85565b9150614d7283614e85565b925082614d8257614d81614fac565b5b828204905092915050565b6000614d9882614e85565b9150614da383614e85565b9250817fffffffffffffffffffffffffffffffffffffffffffffffffffffffffffffffff0483118215151615614ddc57614ddb614f7d565b5b828202905092915050565b6000614df282614e85565b9150614dfd83614e85565b925082821015614e1057614e0f614f7d565b5b828203905092915050565b6000614e2682614e65565b9050919050565b60008115159050919050565b60007fffffffff0000000000000000000000000000000000000000000000000000000082169050919050565b600073ffffffffffffffffffffffffffffffffffffffff82169050919050565b6000819050919050565b82818337600083830152505050565b60005b83811015614ebc578082015181840152602081019050614ea1565b83811115614ecb576000848401525b50505050565b60006002820490506001821680614ee957607f821691505b60208210811415614efd57614efc614fdb565b5b50919050565b6000614f0e82614e85565b91507fffffffffffffffffffffffffffffffffffffffffffffffffffffffffffffffff821415614f4157614f40614f7d565b5b600182019050919050565b6000614f5782614e85565b9150614f6283614e85565b925082614f7257614f71614fac565b5b828206905092915050565b7f4e487b7100000000000000000000000000000000000000000000000000000000600052601160045260246000fd5b7f4e487b7100000000000000000000000000000000000000000000000000000000600052601260045260246000fd5b7f4e487b7100000000000000000000000000000000000000000000000000000000600052602260045260246000fd5b7f4e487b7100000000000000000000000000000000000000000000000000000000600052604160045260246000fd5b6000601f19601f8301169050919050565b61505381614e1b565b811461505e57600080fd5b50565b61506a81614e2d565b811461507557600080fd5b50565b61508181614e39565b811461508c57600080fd5b50565b61509881614e85565b81146150a357600080fd5b5056fea2646970667358221220cb9c64159c5b5da7b0cfdddbf9aa7c166f10756153bc284162055c8b2a361da964736f6c63430008000033",
  "immutableReferences": {},
  "source": "// SPDX-License-Identifier: GPL-3.0\r\npragma solidity ^0.8.0;\r\n\r\nimport \"./ERC721Enumerable.sol\";\r\nimport \"./Ownable.sol\";\r\nimport \"./SafeMath.sol\";\r\nimport \"./SafeERC20.sol\";\r\n\r\n\r\n\r\ncontract Buffalos is ERC721Enumerable, Ownable {\r\n\r\n    using SafeMath for uint256;\r\n    using Strings for uint256;\r\n\r\n    // Time of when the sale starts.\r\n    uint256 public blockStart;\r\n\r\n    // Maximum amount of Buffalos in existance. \r\n    uint256 public MAX_SUPPLY;\r\n    uint256 public cost;\r\n    uint256 public maxMintAmount;\r\n    uint256 public BASE_RATE = 10 ** 18;\r\n    \r\n    address public artist;\r\n    address public txFeeToken;\r\n\r\n    string public baseURI;\r\n    // string public nftName;\r\n    // string public nftUnit;\r\n    string public uri;\r\n    string public metaDataExt = \".json\";\r\n\r\n    bool public mintable = true;\r\n\r\n    mapping(address => bool) public whitelisted;\r\n    mapping(address => bool) public excludedList;\r\n\r\n    event BuffaloBought (address buyer, uint256 amount);\r\n\r\n    constructor(\r\n        string memory name, \r\n        string memory symbol, \r\n        string memory URI,\r\n        uint256 initialSupply, \r\n        uint256 startDate,\r\n        address _artist,\r\n        address _txFeeToken,\r\n        uint _txFeeAmount\r\n    ) ERC721(name, symbol) {\r\n        setBaseURI(URI);\r\n        setBlockStart(startDate);\r\n\r\n        artist = _artist;\r\n        txFeeToken = _txFeeToken;\r\n        // excludedList[artist] = true;\r\n        BASE_RATE = _txFeeAmount * 10 ** 15;\r\n\r\n        MAX_SUPPLY = initialSupply;        \r\n        // Mint 30 Buffalos for airdrop and gift purposes\r\n    }\r\n\r\n    // public\r\n    function getNFTPrice(uint256 amount) public view returns (uint256) {\r\n        return amount.mul(BASE_RATE);\r\n    }\r\n\r\n    function setExcluded(address excluded, bool status) external {\r\n        require(msg.sender == artist, 'artist only');\r\n        excludedList[excluded] = status;\r\n    }\r\n\r\n    function setBlockStart(uint256 startDate) public {\r\n        blockStart = startDate;\r\n    }\r\n\r\n    function updateBlockStart(uint256 startDate) onlyOwner public {\r\n        require(block.timestamp <= blockStart, \"Sale has already started.\");\r\n        blockStart = startDate;\r\n    }\r\n\r\n    function getBlockStart() public view returns (uint256)  {\r\n        return blockStart;\r\n    }\r\n\r\n    function getMaxSupply() public view returns (uint256)  {\r\n        return MAX_SUPPLY;\r\n    }\r\n\r\n    // function ApproveContract() public {\r\n    //     IERC20 token = IERC20(txFeeToken);\r\n    //     token.approve(address(this), 1000 * 10 ** 18);\r\n    // }\r\n    /**\r\n    * @dev Mints yourself a Buffalo. Or more.\r\n    */\r\n    function mintBuffalo(uint256 numberofBuffalos) public payable {\r\n        // Some exceptions that need to be handled.\r\n        require(block.timestamp >= blockStart, \"Sale has not started yet so you can't get a price yet.\");\r\n        require(totalSupply() < MAX_SUPPLY, \"Sale has already ended.\");\r\n        require(numberofBuffalos > 0, \"You cannot mint 0 Buffalos.\");\r\n        require(SafeMath.add(totalSupply(), numberofBuffalos) <= MAX_SUPPLY, \"Exceeds maximum Buffalos supply. Please try to mint less Buffalos.\");        \r\n        \r\n        IERC20 token = IERC20(txFeeToken);  \r\n        require(getNFTPrice(numberofBuffalos) <= token.balanceOf(msg.sender), \"Amount of Token is not sufficient.\");\r\n        token.transferFrom(msg.sender, artist, getNFTPrice(numberofBuffalos));   \r\n        // require(token.transferFrom(msg.sender, artist, getNFTPrice(numberofBuffalos)), \"token transfer failed\");        \r\n\r\n        for(uint256 i=0; i<numberofBuffalos; i++) {\r\n            _safeMint(msg.sender, totalSupply());\r\n        }\r\n\r\n        emit BuffaloBought(msg.sender, numberofBuffalos);\r\n    }\r\n\r\n    /**\r\n    * @dev Withdraw ether from this contract (Callable by owner only)\r\n    */\r\n    \r\n    function canMint(bool mintFlag) onlyOwner public {\r\n        mintable = mintFlag;\r\n    }\r\n\r\n    function withdraw(uint256 amount) onlyOwner public {\r\n        payable(msg.sender).transfer(amount);\r\n    }\r\n\r\n    /**\r\n    * @dev Changes the base URI if we want to move things in the future (Callable by owner only)\r\n    */\r\n    function changeBaseURI(string memory URI) onlyOwner public {\r\n       setBaseURI(URI);\r\n    }\r\n    /**\r\n    * @dev Changes max supply based on future drop dates (owner only)\r\n    */\r\n    function changeMaxSupply(uint256 supply) onlyOwner public {\r\n        MAX_SUPPLY = supply;\r\n    }\r\n\r\n    function updateMintPrice(uint256 price) onlyOwner public {\r\n        BASE_RATE = price * 10 ** 15;\r\n    }\r\n\r\n    function walletOfOwner(address _owner)\r\n        public\r\n        view\r\n        returns (uint256[] memory)\r\n    {\r\n        uint256 ownerTokenCount = balanceOf(_owner);\r\n        uint256[] memory tokenIds = new uint256[](ownerTokenCount);\r\n        for (uint256 i; i < ownerTokenCount; i++) {\r\n            tokenIds[i] = tokenOfOwnerByIndex(_owner, i);\r\n        }\r\n        return tokenIds;\r\n    }\r\n\r\n    // internal\r\n    function _baseURI() internal view virtual override returns (string memory) {\r\n        return baseURI;\r\n    }\r\n\r\n    function tokenURI(uint256 tokenId)\r\n        public\r\n        view\r\n        virtual\r\n        override\r\n        returns (string memory)\r\n    {\r\n        require(\r\n        _exists(tokenId),\r\n        \"ERC721Metadata: URI query for nonexistent token\"\r\n        );\r\n\r\n        string memory currentBaseURI = _baseURI();\r\n        return bytes(currentBaseURI).length > 0\r\n            ? string(abi.encodePacked(currentBaseURI, tokenId.toString(), metaDataExt))\r\n            : \"\";\r\n    }\r\n\r\n    //only owner\r\n    function setCost(uint256 _newCost) public onlyOwner {\r\n        cost = _newCost;\r\n    }\r\n\r\n    function setmaxMintAmount(uint256 _newmaxMintAmount) onlyOwner public {\r\n        maxMintAmount = _newmaxMintAmount;\r\n    }\r\n\r\n    function setBaseURI(string memory _newBaseURI) onlyOwner public {\r\n        baseURI = _newBaseURI;\r\n    }\r\n\r\n    function whitelistUser(address _user) onlyOwner public {\r\n        whitelisted[_user] = true;\r\n    }\r\n\r\n    function removeWhitelistUser(address _user) onlyOwner public {\r\n        whitelisted[_user] = false;\r\n    }\r\n\r\n}",
  "sourcePath": "D:\\projects\\github\\buffalo-nft-contract\\contracts\\Buffalos.sol",
  "compiler": {
    "name": "solc",
    "version": "0.8.0+commit.c7dfd78e.Emscripten.clang"
  },
  "schemaVersion": "3.4.3",
  "updatedAt": "2021-12-07T10:51:12.832Z",
  "networkType": "ethereum",
  "devdoc": {
    "kind": "dev",
    "methods": {
      "approve(address,uint256)": {
        "details": "See {IERC721-approve}."
      },
      "balanceOf(address)": {
        "details": "See {IERC721-balanceOf}."
      },
      "canMint(bool)": {
        "details": "Withdraw ether from this contract (Callable by owner only)"
      },
      "changeBaseURI(string)": {
        "details": "Changes the base URI if we want to move things in the future (Callable by owner only)"
      },
      "changeMaxSupply(uint256)": {
        "details": "Changes max supply based on future drop dates (owner only)"
      },
      "getApproved(uint256)": {
        "details": "See {IERC721-getApproved}."
      },
      "isApprovedForAll(address,address)": {
        "details": "See {IERC721-isApprovedForAll}."
      },
      "mintBuffalo(uint256)": {
        "details": "Mints yourself a Buffalo. Or more."
      },
      "name()": {
        "details": "See {IERC721Metadata-name}."
      },
      "owner()": {
        "details": "Returns the address of the current owner."
      },
      "ownerOf(uint256)": {
        "details": "See {IERC721-ownerOf}."
      },
      "renounceOwnership()": {
        "details": "Leaves the contract without owner. It will not be possible to call `onlyOwner` functions anymore. Can only be called by the current owner. NOTE: Renouncing ownership will leave the contract without an owner, thereby removing any functionality that is only available to the owner."
      },
      "safeTransferFrom(address,address,uint256)": {
        "details": "See {IERC721-safeTransferFrom}."
      },
      "safeTransferFrom(address,address,uint256,bytes)": {
        "details": "See {IERC721-safeTransferFrom}."
      },
      "setApprovalForAll(address,bool)": {
        "details": "See {IERC721-setApprovalForAll}."
      },
      "supportsInterface(bytes4)": {
        "details": "See {IERC165-supportsInterface}."
      },
      "symbol()": {
        "details": "See {IERC721Metadata-symbol}."
      },
      "tokenByIndex(uint256)": {
        "details": "See {IERC721Enumerable-tokenByIndex}."
      },
      "tokenOfOwnerByIndex(address,uint256)": {
        "details": "See {IERC721Enumerable-tokenOfOwnerByIndex}."
      },
      "tokenURI(uint256)": {
        "details": "See {IERC721Metadata-tokenURI}."
      },
      "totalSupply()": {
        "details": "See {IERC721Enumerable-totalSupply}."
      },
      "transferFrom(address,address,uint256)": {
        "details": "See {IERC721-transferFrom}."
      },
      "transferOwnership(address)": {
        "details": "Transfers ownership of the contract to a new account (`newOwner`). Can only be called by the current owner."
      }
    },
    "version": 1
  },
  "userdoc": {
    "kind": "user",
    "methods": {},
    "version": 1
  }
}